{
  "_format": "hh-sol-artifact-1",
  "contractName": "CosmicAirdrop",
  "sourceName": "contracts/CosmicAirdrop.sol",
  "abi": [
    {
      "inputs": [
        {
          "internalType": "address",
          "name": "_token",
          "type": "address"
        },
        {
          "internalType": "address",
          "name": "_admin",
          "type": "address"
        }
      ],
      "stateMutability": "nonpayable",
      "type": "constructor"
    },
    {
      "anonymous": false,
      "inputs": [
        {
          "indexed": false,
          "internalType": "address",
          "name": "recipient",
          "type": "address"
        },
        {
          "indexed": false,
          "internalType": "uint256",
          "name": "amount",
          "type": "uint256"
        },
        {
          "indexed": false,
          "internalType": "uint256",
          "name": "date",
          "type": "uint256"
        }
      ],
      "name": "AirdropProcessed",
      "type": "event"
    },
    {
      "inputs": [],
      "name": "admin",
      "outputs": [
        {
          "internalType": "address",
          "name": "",
          "type": "address"
        }
      ],
      "stateMutability": "view",
      "type": "function"
    },
    {
      "inputs": [
        {
          "internalType": "address",
          "name": "recipient",
          "type": "address"
        },
        {
          "internalType": "uint256",
          "name": "amount",
          "type": "uint256"
        },
        {
          "internalType": "bytes",
          "name": "signature",
          "type": "bytes"
        }
      ],
      "name": "claimTokens",
      "outputs": [],
      "stateMutability": "nonpayable",
      "type": "function"
    },
    {
      "inputs": [],
      "name": "currentAirdropAmount",
      "outputs": [
        {
          "internalType": "uint256",
          "name": "",
          "type": "uint256"
        }
      ],
      "stateMutability": "view",
      "type": "function"
    },
    {
      "inputs": [],
      "name": "maxAirdropAmount",
      "outputs": [
        {
          "internalType": "uint256",
          "name": "",
          "type": "uint256"
        }
      ],
      "stateMutability": "view",
      "type": "function"
    },
    {
      "inputs": [
        {
          "internalType": "address",
          "name": "",
          "type": "address"
        }
      ],
      "name": "processedAirdrops",
      "outputs": [
        {
          "internalType": "bool",
          "name": "",
          "type": "bool"
        }
      ],
      "stateMutability": "view",
      "type": "function"
    },
    {
      "inputs": [],
      "name": "token",
      "outputs": [
        {
          "internalType": "contract IERC20",
          "name": "",
          "type": "address"
        }
      ],
      "stateMutability": "view",
      "type": "function"
    },
    {
      "inputs": [
        {
          "internalType": "address",
          "name": "newAdmin",
          "type": "address"
        }
      ],
      "name": "updateAdmin",
      "outputs": [],
      "stateMutability": "nonpayable",
      "type": "function"
    }
  ],
  "bytecode": "0x608060405269152d02c7e14af68000006004553480156200001f57600080fd5b506040516200100138038062001001833981810160405281019062000045919062000138565b806000806101000a81548173ffffffffffffffffffffffffffffffffffffffff021916908373ffffffffffffffffffffffffffffffffffffffff16021790555081600260006101000a81548173ffffffffffffffffffffffffffffffffffffffff021916908373ffffffffffffffffffffffffffffffffffffffff16021790555050506200017f565b600080fd5b600073ffffffffffffffffffffffffffffffffffffffff82169050919050565b60006200010082620000d3565b9050919050565b6200011281620000f3565b81146200011e57600080fd5b50565b600081519050620001328162000107565b92915050565b60008060408385031215620001525762000151620000ce565b5b6000620001628582860162000121565b9250506020620001758582860162000121565b9150509250929050565b610e72806200018f6000396000f3fe608060405234801561001057600080fd5b506004361061007d5760003560e01c80637424bab11161005b5780637424bab1146100ec578063e2f273bd1461010a578063f851a44014610126578063fc0c546a146101445761007d565b806323efeb121461008257806332ffa783146100a057806349e80422146100d0575b600080fd5b61008a610162565b6040516100979190610701565b60405180910390f35b6100ba60048036038101906100b59190610784565b610168565b6040516100c791906107cc565b60405180910390f35b6100ea60048036038101906100e59190610878565b610188565b005b6100f46104df565b6040516101019190610701565b60405180910390f35b610124600480360381019061011f9190610784565b6104e5565b005b61012e6105b6565b60405161013b91906108fb565b60405180910390f35b61014c6105da565b6040516101599190610975565b60405180910390f35b60045481565b60016020528060005260406000206000915054906101000a900460ff1681565b60006101bb85856040516020016101a09291906109f9565b60405160208183030381529060405280519060200120610600565b905060008054906101000a900473ffffffffffffffffffffffffffffffffffffffff1673ffffffffffffffffffffffffffffffffffffffff166102428285858080601f016020809104026020016040519081016040528093929190818152602001838380828437600081840152601f19601f82011690508083019250505050505050610630565b73ffffffffffffffffffffffffffffffffffffffff1614610298576040517f08c379a000000000000000000000000000000000000000000000000000000000815260040161028f90610a82565b60405180910390fd5b60001515600160008773ffffffffffffffffffffffffffffffffffffffff1673ffffffffffffffffffffffffffffffffffffffff16815260200190815260200160002060009054906101000a900460ff1615151461032b576040517f08c379a000000000000000000000000000000000000000000000000000000000815260040161032290610aee565b60405180910390fd5b6004548460035461033c9190610b3d565b111561037d576040517f08c379a000000000000000000000000000000000000000000000000000000000815260040161037490610bdf565b60405180910390fd5b60018060008773ffffffffffffffffffffffffffffffffffffffff1673ffffffffffffffffffffffffffffffffffffffff16815260200190815260200160002060006101000a81548160ff02191690831515021790555083600360008282546103e69190610b3d565b92505081905550600260009054906101000a900473ffffffffffffffffffffffffffffffffffffffff1673ffffffffffffffffffffffffffffffffffffffff1663a9059cbb86866040518363ffffffff1660e01b815260040161044a929190610bff565b602060405180830381600087803b15801561046457600080fd5b505af1158015610478573d6000803e3d6000fd5b505050506040513d601f19601f8201168201806040525081019061049c9190610c54565b507fc0312d3bf25e86c787fa77f4d038213e428dc722e16d38ca9719e987d20f7c7c8585426040516104d093929190610c81565b60405180910390a15050505050565b60035481565b60008054906101000a900473ffffffffffffffffffffffffffffffffffffffff1673ffffffffffffffffffffffffffffffffffffffff163373ffffffffffffffffffffffffffffffffffffffff1614610573576040517f08c379a000000000000000000000000000000000000000000000000000000000815260040161056a90610d04565b60405180910390fd5b806000806101000a81548173ffffffffffffffffffffffffffffffffffffffff021916908373ffffffffffffffffffffffffffffffffffffffff16021790555050565b60008054906101000a900473ffffffffffffffffffffffffffffffffffffffff1681565b600260009054906101000a900473ffffffffffffffffffffffffffffffffffffffff1681565b6000816040516020016106139190610da6565b604051602081830303815290604052805190602001209050919050565b60008060008061063f856106a5565b8093508194508295505050506001868484846040516000815260200160405260405161066e9493929190610df7565b6020604051602081039080840390855afa158015610690573d6000803e3d6000fd5b50505060206040510351935050505092915050565b600080600060418451146106b857600080fd5b60008060006020870151925060408701519150606087015160001a90508083839550955095505050509193909250565b6000819050919050565b6106fb816106e8565b82525050565b600060208201905061071660008301846106f2565b92915050565b600080fd5b600080fd5b600073ffffffffffffffffffffffffffffffffffffffff82169050919050565b600061075182610726565b9050919050565b61076181610746565b811461076c57600080fd5b50565b60008135905061077e81610758565b92915050565b60006020828403121561079a5761079961071c565b5b60006107a88482850161076f565b91505092915050565b60008115159050919050565b6107c6816107b1565b82525050565b60006020820190506107e160008301846107bd565b92915050565b6107f0816106e8565b81146107fb57600080fd5b50565b60008135905061080d816107e7565b92915050565b600080fd5b600080fd5b600080fd5b60008083601f84011261083857610837610813565b5b8235905067ffffffffffffffff81111561085557610854610818565b5b6020830191508360018202830111156108715761087061081d565b5b9250929050565b600080600080606085870312156108925761089161071c565b5b60006108a08782880161076f565b94505060206108b1878288016107fe565b935050604085013567ffffffffffffffff8111156108d2576108d1610721565b5b6108de87828801610822565b925092505092959194509250565b6108f581610746565b82525050565b600060208201905061091060008301846108ec565b92915050565b6000819050919050565b600061093b61093661093184610726565b610916565b610726565b9050919050565b600061094d82610920565b9050919050565b600061095f82610942565b9050919050565b61096f81610954565b82525050565b600060208201905061098a6000830184610966565b92915050565b60008160601b9050919050565b60006109a882610990565b9050919050565b60006109ba8261099d565b9050919050565b6109d26109cd82610746565b6109af565b82525050565b6000819050919050565b6109f36109ee826106e8565b6109d8565b82525050565b6000610a0582856109c1565b601482019150610a1582846109e2565b6020820191508190509392505050565b600082825260208201905092915050565b7f77726f6e67207369676e61747572650000000000000000000000000000000000600082015250565b6000610a6c600f83610a25565b9150610a7782610a36565b602082019050919050565b60006020820190508181036000830152610a9b81610a5f565b9050919050565b7f61697264726f7020616c72656164792070726f63657373656400000000000000600082015250565b6000610ad8601983610a25565b9150610ae382610aa2565b602082019050919050565b60006020820190508181036000830152610b0781610acb565b9050919050565b7f4e487b7100000000000000000000000000000000000000000000000000000000600052601160045260246000fd5b6000610b48826106e8565b9150610b53836106e8565b9250827fffffffffffffffffffffffffffffffffffffffffffffffffffffffffffffffff03821115610b8857610b87610b0e565b5b828201905092915050565b7f61697264726f707065642031303025206f662074686520746f6b656e73000000600082015250565b6000610bc9601d83610a25565b9150610bd482610b93565b602082019050919050565b60006020820190508181036000830152610bf881610bbc565b9050919050565b6000604082019050610c1460008301856108ec565b610c2160208301846106f2565b9392505050565b610c31816107b1565b8114610c3c57600080fd5b50565b600081519050610c4e81610c28565b92915050565b600060208284031215610c6a57610c6961071c565b5b6000610c7884828501610c3f565b91505092915050565b6000606082019050610c9660008301866108ec565b610ca360208301856106f2565b610cb060408301846106f2565b949350505050565b7f6f6e6c792061646d696e00000000000000000000000000000000000000000000600082015250565b6000610cee600a83610a25565b9150610cf982610cb8565b602082019050919050565b60006020820190508181036000830152610d1d81610ce1565b9050919050565b600081905092915050565b7f19457468657265756d205369676e6564204d6573736167653a0a333200000000600082015250565b6000610d65601c83610d24565b9150610d7082610d2f565b601c82019050919050565b6000819050919050565b6000819050919050565b610da0610d9b82610d7b565b610d85565b82525050565b6000610db182610d58565b9150610dbd8284610d8f565b60208201915081905092915050565b610dd581610d7b565b82525050565b600060ff82169050919050565b610df181610ddb565b82525050565b6000608082019050610e0c6000830187610dcc565b610e196020830186610de8565b610e266040830185610dcc565b610e336060830184610dcc565b9594505050505056fea2646970667358221220efd7ae80a0eeee2ebbacbd781a989ec79de42bb139cf43f1b6059b2f212a172e64736f6c63430008090033",
  "linkReferences": {},
  "deployedLinkReferences": {}
}